{
  "_format": "hh-sol-artifact-1",
  "contractName": "DevTheGatheringV2",
  "sourceName": "contracts/DevTheGatheringV2.sol",
  "abi": [
    {
      "inputs": [
        {
          "internalType": "address",
          "name": "vrfCoordinator",
          "type": "address"
        },
        {
          "internalType": "address",
          "name": "link",
          "type": "address"
        },
        {
          "internalType": "bytes32",
          "name": "keyHash",
          "type": "bytes32"
        },
        {
          "internalType": "uint64",
          "name": "_vrfSubscriptionId",
          "type": "uint64"
        }
      ],
      "stateMutability": "nonpayable",
      "type": "constructor"
    },
    {
      "inputs": [
        {
          "internalType": "address",
          "name": "have",
          "type": "address"
        },
        {
          "internalType": "address",
          "name": "want",
          "type": "address"
        }
      ],
      "name": "OnlyCoordinatorCanFulfill",
      "type": "error"
    },
    {
      "anonymous": false,
      "inputs": [
        {
          "indexed": false,
          "internalType": "uint256",
          "name": "id",
          "type": "uint256"
        },
        {
          "indexed": false,
          "internalType": "uint256",
          "name": "externalId",
          "type": "uint256"
        },
        {
          "indexed": false,
          "internalType": "address",
          "name": "owner",
          "type": "address"
        },
        {
          "indexed": false,
          "internalType": "enum DevTheGatheringV2.CardRarity",
          "name": "rarity",
          "type": "uint8"
        },
        {
          "indexed": false,
          "internalType": "bool",
          "name": "foil",
          "type": "bool"
        },
        {
          "indexed": false,
          "internalType": "uint256",
          "name": "quantity",
          "type": "uint256"
        },
        {
          "indexed": false,
          "internalType": "uint256",
          "name": "level",
          "type": "uint256"
        },
        {
          "indexed": false,
          "internalType": "bool",
          "name": "created",
          "type": "bool"
        },
        {
          "indexed": false,
          "internalType": "uint256",
          "name": "createdAt",
          "type": "uint256"
        },
        {
          "indexed": false,
          "internalType": "uint256",
          "name": "updatedAt",
          "type": "uint256"
        }
      ],
      "name": "CardCreated",
      "type": "event"
    },
    {
      "anonymous": false,
      "inputs": [
        {
          "indexed": false,
          "internalType": "uint256",
          "name": "id",
          "type": "uint256"
        },
        {
          "indexed": false,
          "internalType": "uint256",
          "name": "externalId",
          "type": "uint256"
        },
        {
          "indexed": false,
          "internalType": "address",
          "name": "owner",
          "type": "address"
        },
        {
          "indexed": false,
          "internalType": "enum DevTheGatheringV2.CardRarity",
          "name": "rarity",
          "type": "uint8"
        },
        {
          "indexed": false,
          "internalType": "bool",
          "name": "foil",
          "type": "bool"
        },
        {
          "indexed": false,
          "internalType": "uint256",
          "name": "quantity",
          "type": "uint256"
        },
        {
          "indexed": false,
          "internalType": "uint256",
          "name": "level",
          "type": "uint256"
        },
        {
          "indexed": false,
          "internalType": "bool",
          "name": "created",
          "type": "bool"
        },
        {
          "indexed": false,
          "internalType": "uint256",
          "name": "createdAt",
          "type": "uint256"
        },
        {
          "indexed": false,
          "internalType": "uint256",
          "name": "updatedAt",
          "type": "uint256"
        }
      ],
      "name": "CardUpdated",
      "type": "event"
    },
    {
      "anonymous": false,
      "inputs": [
        {
          "indexed": true,
          "internalType": "address",
          "name": "previousOwner",
          "type": "address"
        },
        {
          "indexed": true,
          "internalType": "address",
          "name": "newOwner",
          "type": "address"
        }
      ],
      "name": "OwnershipTransferred",
      "type": "event"
    },
    {
      "inputs": [],
      "name": "boosterPrice",
      "outputs": [
        {
          "internalType": "uint256",
          "name": "",
          "type": "uint256"
        }
      ],
      "stateMutability": "view",
      "type": "function"
    },
    {
      "inputs": [
        {
          "internalType": "enum DevTheGatheringV2.CardRarity",
          "name": "",
          "type": "uint8"
        }
      ],
      "name": "cardQuantitiesByRarity",
      "outputs": [
        {
          "internalType": "uint256",
          "name": "",
          "type": "uint256"
        }
      ],
      "stateMutability": "view",
      "type": "function"
    },
    {
      "inputs": [
        {
          "internalType": "uint256",
          "name": "",
          "type": "uint256"
        }
      ],
      "name": "cards",
      "outputs": [
        {
          "internalType": "uint256",
          "name": "id",
          "type": "uint256"
        },
        {
          "internalType": "uint256",
          "name": "externalId",
          "type": "uint256"
        },
        {
          "internalType": "address",
          "name": "owner",
          "type": "address"
        },
        {
          "internalType": "enum DevTheGatheringV2.CardRarity",
          "name": "rarity",
          "type": "uint8"
        },
        {
          "internalType": "bool",
          "name": "foil",
          "type": "bool"
        },
        {
          "internalType": "uint256",
          "name": "quantity",
          "type": "uint256"
        },
        {
          "internalType": "uint256",
          "name": "level",
          "type": "uint256"
        },
        {
          "internalType": "bool",
          "name": "created",
          "type": "bool"
        },
        {
          "internalType": "uint256",
          "name": "createdAt",
          "type": "uint256"
        },
        {
          "internalType": "uint256",
          "name": "updatedAt",
          "type": "uint256"
        }
      ],
      "stateMutability": "view",
      "type": "function"
    },
    {
      "inputs": [
        {
          "internalType": "address",
          "name": "",
          "type": "address"
        }
      ],
      "name": "developers",
      "outputs": [
        {
          "internalType": "enum DevTheGatheringV2.DeveloperStatus",
          "name": "status",
          "type": "uint8"
        },
        {
          "internalType": "bool",
          "name": "created",
          "type": "bool"
        },
        {
          "internalType": "uint256",
          "name": "createdAt",
          "type": "uint256"
        },
        {
          "internalType": "uint256",
          "name": "updatedAt",
          "type": "uint256"
        }
      ],
      "stateMutability": "view",
      "type": "function"
    },
    {
      "inputs": [],
      "name": "getMyDeveloperStatus",
      "outputs": [
        {
          "internalType": "enum DevTheGatheringV2.DeveloperStatus",
          "name": "",
          "type": "uint8"
        }
      ],
      "stateMutability": "view",
      "type": "function"
    },
    {
      "inputs": [],
      "name": "openBoosterPack",
      "outputs": [],
      "stateMutability": "payable",
      "type": "function"
    },
    {
      "inputs": [],
      "name": "owner",
      "outputs": [
        {
          "internalType": "address",
          "name": "",
          "type": "address"
        }
      ],
      "stateMutability": "view",
      "type": "function"
    },
    {
      "inputs": [
        {
          "internalType": "uint256",
          "name": "requestId",
          "type": "uint256"
        },
        {
          "internalType": "uint256[]",
          "name": "randomWords",
          "type": "uint256[]"
        }
      ],
      "name": "rawFulfillRandomWords",
      "outputs": [],
      "stateMutability": "nonpayable",
      "type": "function"
    },
    {
      "inputs": [],
      "name": "renounceOwnership",
      "outputs": [],
      "stateMutability": "nonpayable",
      "type": "function"
    },
    {
      "inputs": [
        {
          "internalType": "address",
          "name": "newOwner",
          "type": "address"
        }
      ],
      "name": "transferOwnership",
      "outputs": [],
      "stateMutability": "nonpayable",
      "type": "function"
    },
    {
      "inputs": [
        {
          "internalType": "uint256",
          "name": "newBoosterPrice",
          "type": "uint256"
        }
      ],
      "name": "updateBoosterPrice",
      "outputs": [
        {
          "internalType": "uint256",
          "name": "",
          "type": "uint256"
        }
      ],
      "stateMutability": "nonpayable",
      "type": "function"
    },
    {
      "inputs": [
        {
          "internalType": "enum DevTheGatheringV2.CardRarity",
          "name": "rarity",
          "type": "uint8"
        },
        {
          "internalType": "uint256",
          "name": "newQuantity",
          "type": "uint256"
        }
      ],
      "name": "updateCardsQuantity",
      "outputs": [],
      "stateMutability": "nonpayable",
      "type": "function"
    },
    {
      "inputs": [],
      "name": "withdraw",
      "outputs": [],
      "stateMutability": "nonpayable",
      "type": "function"
    }
  ],
  "bytecode": "0x60a0604052600580546001600160501b03191666030003000c35001790556658d15e176280006006553480156200003557600080fd5b5060405162001613380380620016138339810160408190526200005891620001f7565b8362000064336200018a565b6001600160a01b03908116608052600180549582166001600160a01b0319968716178155600280546001600160401b0394909416600160a01b026001600160e01b031990941695909216948517929092178155600380549095169093179093556004908155600760205260097f6d5257204ebe7d88fd91ae87941cb2dd9d8062b64ae5a2bd2d28ec40b9fbf6df5560067fb39221ace053465ec3453ce2b36430bd138b997ecea25c1043da0c366812b828557fb7c774451310d1be4108bc180d1b52823cb0ee0274a6c0081bcaf94f115fb96d8190557f3be6fd20d5acfde5b873b48692cd31f4d3c7e8ee8a813af4696af8859e5ca6c6919091556000527fb805995a7ec585a251200611a61d179cfd7fb105e1ab17dc415a7336783786f75562000259565b600080546001600160a01b038381166001600160a01b0319831681178455604051919092169283917f8be0079c531659141344cd1fd0a4f28419497f9722a3daafe3b4186f6b6457e09190a35050565b80516001600160a01b0381168114620001f257600080fd5b919050565b600080600080608085870312156200020e57600080fd5b6200021985620001da565b93506200022960208601620001da565b6040860151606087015191945092506001600160401b03811681146200024e57600080fd5b939692955090935050565b6080516113976200027c60003960008181610332015261037401526113976000f3fe6080604052600436106100c25760003560e01c80636c45d9851161007f5780638da5cb5b116100595780638da5cb5b1461020a5780638dc1076814610232578063d7045963146102c3578063f2fde38b146102f057600080fd5b80636c45d985146101a8578063715018a6146101d55780637dd131c0146101ea57600080fd5b806304058165146100c75780630c1c22ea146100f05780631fe543e3146101105780633ccfd60b146101325780634e6ae55d1461014757806361fd5c201461014f575b600080fd5b3480156100d357600080fd5b506100dd60065481565b6040519081526020015b60405180910390f35b3480156100fc57600080fd5b506100dd61010b36600461103f565b610310565b34801561011c57600080fd5b5061013061012b36600461106e565b610327565b005b34801561013e57600080fd5b506101306103b4565b610130610455565b34801561015b57600080fd5b5061019861016a366004611138565b600860205260009081526040902080546002820154600383015460049093015460ff92831693919092169184565b6040516100e79493929190611192565b3480156101b457600080fd5b506100dd6101c33660046111ca565b60076020526000908152604090205481565b3480156101e157600080fd5b5061013061068e565b3480156101f657600080fd5b506101306102053660046111e5565b6106a2565b34801561021657600080fd5b506000546040516001600160a01b0390911681526020016100e7565b34801561023e57600080fd5b506102ad61024d36600461103f565b600a6020526000908152604090208054600182015460028301546003840154600485015460058601546006870154600790970154959694956001600160a01b0385169560ff600160a01b8704811696600160a81b9004811695949316918a565b6040516100e79a9998979695949392919061120f565b3480156102cf57600080fd5b503360009081526008602052604090205460ff166040516100e79190611278565b3480156102fc57600080fd5b5061013061030b366004611138565b6106e7565b600061031a61075d565b506006819055805b919050565b336001600160a01b037f000000000000000000000000000000000000000000000000000000000000000016146103a65760405163073e64fd60e21b81523360048201526001600160a01b037f00000000000000000000000000000000000000000000000000000000000000001660248201526044015b60405180910390fd5b6103b082826107b7565b5050565b6103bc61075d565b600080546040516001600160a01b039091169047908381818185875af1925050503d8060008114610409576040519150601f19603f3d011682016040523d82523d6000602084013e61040e565b606091505b50509050806104525760405162461bcd60e51b815260206004820152601060248201526f5472616e73666572206661696c65642160801b604482015260640161039d565b50565b60065434101561049d5760405162461bcd60e51b81526020600482015260136024820152722737ba1032b737bab3b4103130b630b731b29760691b604482015260640161039d565b3360009081526008602052604081205460ff1660018111156104c1576104c1611168565b146105205760405162461bcd60e51b815260206004820152602960248201527f4120626f6f73746572207061636b2069732063757272656e746c79206265696e604482015268339037b832b732b21760b91b606482015260840161039d565b600154600480546002546005546040516305d3b1d360e41b815293840192909252600160a01b900467ffffffffffffffff166024830152640100000000810461ffff16604483015263ffffffff808216606484015266010000000000009091041660848201526000916001600160a01b031690635d3b1d309060a401602060405180830381600087803b1580156105b657600080fd5b505af11580156105ca573d6000803e3d6000fd5b505050506040513d601f19601f820116820180604052508101906105ee919061128c565b3360009081526008602052604090206002015490915060ff1661063c5733600090815260086020526040902060028101805460ff191660011790554260038201819055600490910155610653565b336000908152600860205260409020426004909101555b336000818152600860209081526040808320805460ff19166001179055938252600b90529190912080546001600160a01b0319169091179055565b61069661075d565b6106a06000610c95565b565b6106aa61075d565b80600760008460048111156106c1576106c1611168565b60048111156106d2576106d2611168565b81526020810191909152604001600020555050565b6106ef61075d565b6001600160a01b0381166107545760405162461bcd60e51b815260206004820152602660248201527f4f776e61626c653a206e6577206f776e657220697320746865207a65726f206160448201526564647265737360d01b606482015260840161039d565b61045281610c95565b6000546001600160a01b031633146106a05760405162461bcd60e51b815260206004820181905260248201527f4f776e61626c653a2063616c6c6572206973206e6f7420746865206f776e6572604482015260640161039d565b6000828152600b60209081526040808320546001600160a01b0316835260089091528120805460ff191690555b6005546601000000000000900463ffffffff16811015610c90576000806000610825858581518110610818576108186112a5565b6020026020010151610ce5565b9250925092506000610850604051806060016040528086815260200185815260200184815250610d71565b60208082015160008a8152600b83526040808220549051949550909361089d936001600160a01b03909216910191825260601b6bffffffffffffffffffffffff1916602082015260340190565b60408051601f19818403018152918152815160209283012060008b8152600b8452828120546001600160a01b03168152600884528281208282526001018452828120548152600a90935291206005015490915060ff1615610a9a576000888152600b60209081526040808320546001600160a01b03168352600882528083208484526001019091529020546080830151801561095257506000818152600a6020526040902060020154600160a81b900460ff16155b1561097a576000818152600a60205260409020600201805460ff60a81b1916600160a81b1790555b6000818152600a60205260408120600301805491610997836112d1565b90915550506000818152600a60205260409020600401546109b99060026112ec565b6000828152600a602052604090206003015414156109fb576000818152600a60205260408120600381018290556004018054916109f5836112d1565b91905055505b6000818152600a602052604090819020426007820181905581546001830154600284015460038501546004860154600587015460069097015497517f7e24dab46400f03756d21aca97955ba9fd27b30b7faf6a9d9284ae7ff5366e6098610a8c98969795966001600160a01b0386169660ff600160a01b8804811697600160a81b900481169695949216929161120f565b60405180910390a150610c78565b610aa8600980546001019055565b6000610ab360095490565b808452600160e0850181905260008b8152600b60209081526040808320546001600160a01b03908116828a0190815260a08a0185905260c08a01869052426101008b018190526101208b0152868552600a8452919093208851815591880151938201939093559151600283018054919092166001600160a01b03198216811783556060880151949550879492916001600160a81b03191617600160a01b836004811115610b6257610b62611168565b021790555060808281015160028301805460ff60a81b1916600160a81b9215159290920291909117905560a080840151600384015560c080850151600485015560e08086015160058601805460ff19169115159190911790556101008087015160068701556101209687015160079096019590955560008f8152600b60209081526040808320546001600160a01b03168352600882528083208b84526001018252918290208990558a51908b01518b83015160608d0151978d0151968d0151958d0151948d0151988d0151998d015193517f4810d7ff423ea92b87132271074c461d798f19cb9e93ecf2137e745d844a137e9a610c6e9a9499939892979396929593949293909161120f565b60405180910390a1505b50505050508080610c88906112d1565b9150506107e4565b505050565b600080546001600160a01b038381166001600160a01b0319831681178455604051919092169283917f8be0079c531659141344cd1fd0a4f28419497f9722a3daafe3b4186f6b6457e09190a35050565b6000808080610cf5606486611321565b90506000610d1874446c3b15f9926687d2c40534fdb56400000000000083611335565b9050610d3974446c3b15f9926687d2c40534fdb56400000000000083611321565b9450610d506a084595161401484a00000082611321565b9350610d676a084595161401484a00000082611335565b9496939550505050565b610d79610fe8565b8151600090610d8a90606490611335565b610d95906001611349565b90506000600560648560026020020151610daf9190611335565b610dba906001611349565b11159050610dc6610fe8565b811515608082015260328310610e2d576000606082018190528052600760209081527f6d5257204ebe7d88fd91ae87941cb2dd9d8062b64ae5a2bd2d28ec40b9fbf6df5490860151610e189190611335565b610e23906001611349565b6020820152610fe0565b601e8310158015610e3f575060318311155b15610e9e57600160608201819052600052600760209081527fb39221ace053465ec3453ce2b36430bd138b997ecea25c1043da0c366812b8285490860151610e879190611335565b610e92906001611349565b610e23906103e8611349565b600d8310158015610eb05750601d8311155b15610f0f57600260608201819052600052600760209081527fb7c774451310d1be4108bc180d1b52823cb0ee0274a6c0081bcaf94f115fb96d5490860151610ef89190611335565b610f03906001611349565b610e23906107d0611349565b60058310158015610f215750600c8311155b15610f8057600360608201819052600052600760209081527f3be6fd20d5acfde5b873b48692cd31f4d3c7e8ee8a813af4696af8859e5ca6c65490860151610f699190611335565b610f74906001611349565b610e2390610bb8611349565b600460608201819052600052600760209081527fb805995a7ec585a251200611a61d179cfd7fb105e1ab17dc415a7336783786f75490860151610fc39190611335565b610fce906001611349565b610fda90610fa0611349565b60208201525b949350505050565b60408051610140810182526000808252602082018190529181018290529060608201908152602001600015158152602001600081526020016000815260200160001515815260200160008152602001600081525090565b60006020828403121561105157600080fd5b5035919050565b634e487b7160e01b600052604160045260246000fd5b6000806040838503121561108157600080fd5b8235915060208084013567ffffffffffffffff808211156110a157600080fd5b818601915086601f8301126110b557600080fd5b8135818111156110c7576110c7611058565b8060051b604051601f19603f830116810181811085821117156110ec576110ec611058565b60405291825284820192508381018501918983111561110a57600080fd5b938501935b828510156111285784358452938501939285019261110f565b8096505050505050509250929050565b60006020828403121561114a57600080fd5b81356001600160a01b038116811461116157600080fd5b9392505050565b634e487b7160e01b600052602160045260246000fd5b6002811061118e5761118e611168565b9052565b608081016111a0828761117e565b93151560208201526040810192909252606090910152919050565b80356005811061032257600080fd5b6000602082840312156111dc57600080fd5b611161826111bb565b600080604083850312156111f857600080fd5b611201836111bb565b946020939093013593505050565b8a8152602081018a90526001600160a01b038916604082015261014081016005891061123d5761123d611168565b6060820198909852951515608087015260a086019490945260c0850192909252151560e0840152610100830152610120909101529392505050565b60208101611286828461117e565b92915050565b60006020828403121561129e57600080fd5b5051919050565b634e487b7160e01b600052603260045260246000fd5b634e487b7160e01b600052601160045260246000fd5b60006000198214156112e5576112e56112bb565b5060010190565b6000816000190483118215151615611306576113066112bb565b500290565b634e487b7160e01b600052601260045260246000fd5b6000826113305761133061130b565b500490565b6000826113445761134461130b565b500690565b6000821982111561135c5761135c6112bb565b50019056fea26469706673582212204a8b07ab7311c6e06624b5b4e40100edd4e1fe2305be5d7681791d16aace971164736f6c63430008090033",
  "linkReferences": {},
  "deployedLinkReferences": {}
}